{
    "_format": "hh-sol-artifact-1",
    "contractName": "MarketPlace",
    "sourceName": "contracts/Marketplace.sol",
    "abi": [
        {
            "inputs": [
                {
                    "internalType": "uint256",
                    "name": "_listingFee",
                    "type": "uint256"
                }
            ],
            "stateMutability": "nonpayable",
            "type": "constructor"
        },
        {
            "anonymous": false,
            "inputs": [
                {
                    "indexed": true,
                    "internalType": "address",
                    "name": "nftContract",
                    "type": "address"
                },
                {
                    "indexed": true,
                    "internalType": "uint256",
                    "name": "tokenId",
                    "type": "uint256"
                },
                {
                    "indexed": true,
                    "internalType": "uint256",
                    "name": "price",
                    "type": "uint256"
                },
                {
                    "indexed": false,
                    "internalType": "address",
                    "name": "seller",
                    "type": "address"
                },
                {
                    "indexed": false,
                    "internalType": "address",
                    "name": "holder",
                    "type": "address"
                }
            ],
            "name": "MarketSale",
            "type": "event"
        },
        {
            "anonymous": false,
            "inputs": [
                {
                    "indexed": true,
                    "internalType": "address",
                    "name": "previousOwner",
                    "type": "address"
                },
                {
                    "indexed": true,
                    "internalType": "address",
                    "name": "newOwner",
                    "type": "address"
                }
            ],
            "name": "OwnershipTransferred",
            "type": "event"
        },
        {
            "anonymous": false,
            "inputs": [
                {
                    "indexed": false,
                    "internalType": "address",
                    "name": "account",
                    "type": "address"
                }
            ],
            "name": "Paused",
            "type": "event"
        },
        {
            "anonymous": false,
            "inputs": [
                {
                    "indexed": false,
                    "internalType": "address",
                    "name": "account",
                    "type": "address"
                }
            ],
            "name": "Unpaused",
            "type": "event"
        },
        {
            "anonymous": false,
            "inputs": [
                {
                    "indexed": true,
                    "internalType": "uint256",
                    "name": "itemId",
                    "type": "uint256"
                },
                {
                    "indexed": true,
                    "internalType": "address",
                    "name": "nftContract",
                    "type": "address"
                },
                {
                    "indexed": true,
                    "internalType": "uint256",
                    "name": "tokenId",
                    "type": "uint256"
                },
                {
                    "indexed": false,
                    "internalType": "address",
                    "name": "seller",
                    "type": "address"
                },
                {
                    "indexed": false,
                    "internalType": "address",
                    "name": "holder",
                    "type": "address"
                },
                {
                    "indexed": false,
                    "internalType": "uint256",
                    "name": "price",
                    "type": "uint256"
                },
                {
                    "indexed": false,
                    "internalType": "bool",
                    "name": "sold",
                    "type": "bool"
                }
            ],
            "name": "VaultItemCreated",
            "type": "event"
        },
        {
            "inputs": [
                {
                    "internalType": "address",
                    "name": "nftContract",
                    "type": "address"
                },
                {
                    "internalType": "uint256",
                    "name": "itemId",
                    "type": "uint256"
                }
            ],
            "name": "EMNMarketSale",
            "outputs": [],
            "stateMutability": "payable",
            "type": "function"
        },
        {
            "inputs": [
                {
                    "internalType": "uint256",
                    "name": "tokenId",
                    "type": "uint256"
                }
            ],
            "name": "cancelSale",
            "outputs": [],
            "stateMutability": "nonpayable",
            "type": "function"
        },
        {
            "inputs": [
                {
                    "internalType": "uint128",
                    "name": "_listingFee",
                    "type": "uint128"
                }
            ],
            "name": "changeListingFee",
            "outputs": [],
            "stateMutability": "nonpayable",
            "type": "function"
        },
        {
            "inputs": [
                {
                    "internalType": "address",
                    "name": "nftContract",
                    "type": "address"
                },
                {
                    "internalType": "uint256",
                    "name": "tokenId",
                    "type": "uint256"
                },
                {
                    "internalType": "uint256",
                    "name": "price",
                    "type": "uint256"
                }
            ],
            "name": "createVaultItem",
            "outputs": [],
            "stateMutability": "payable",
            "type": "function"
        },
        {
            "inputs": [],
            "name": "getAvailableNft",
            "outputs": [
                {
                    "components": [
                        {
                            "internalType": "uint256",
                            "name": "itemId",
                            "type": "uint256"
                        },
                        {
                            "internalType": "address",
                            "name": "nftContract",
                            "type": "address"
                        },
                        {
                            "internalType": "uint256",
                            "name": "tokenId",
                            "type": "uint256"
                        },
                        {
                            "internalType": "address payable",
                            "name": "seller",
                            "type": "address"
                        },
                        {
                            "internalType": "address payable",
                            "name": "holder",
                            "type": "address"
                        },
                        {
                            "internalType": "uint256",
                            "name": "price",
                            "type": "uint256"
                        },
                        {
                            "internalType": "bool",
                            "name": "sold",
                            "type": "bool"
                        }
                    ],
                    "internalType": "struct MarketPlace.VaultItem[]",
                    "name": "",
                    "type": "tuple[]"
                }
            ],
            "stateMutability": "view",
            "type": "function"
        },
        {
            "inputs": [],
            "name": "getListingFee",
            "outputs": [
                {
                    "internalType": "uint256",
                    "name": "",
                    "type": "uint256"
                }
            ],
            "stateMutability": "view",
            "type": "function"
        },
        {
            "inputs": [],
            "name": "getMyMarketNfts",
            "outputs": [
                {
                    "components": [
                        {
                            "internalType": "uint256",
                            "name": "itemId",
                            "type": "uint256"
                        },
                        {
                            "internalType": "address",
                            "name": "nftContract",
                            "type": "address"
                        },
                        {
                            "internalType": "uint256",
                            "name": "tokenId",
                            "type": "uint256"
                        },
                        {
                            "internalType": "address payable",
                            "name": "seller",
                            "type": "address"
                        },
                        {
                            "internalType": "address payable",
                            "name": "holder",
                            "type": "address"
                        },
                        {
                            "internalType": "uint256",
                            "name": "price",
                            "type": "uint256"
                        },
                        {
                            "internalType": "bool",
                            "name": "sold",
                            "type": "bool"
                        }
                    ],
                    "internalType": "struct MarketPlace.VaultItem[]",
                    "name": "",
                    "type": "tuple[]"
                }
            ],
            "stateMutability": "view",
            "type": "function"
        },
        {
            "inputs": [],
            "name": "getMyNft",
            "outputs": [
                {
                    "components": [
                        {
                            "internalType": "uint256",
                            "name": "itemId",
                            "type": "uint256"
                        },
                        {
                            "internalType": "address",
                            "name": "nftContract",
                            "type": "address"
                        },
                        {
                            "internalType": "uint256",
                            "name": "tokenId",
                            "type": "uint256"
                        },
                        {
                            "internalType": "address payable",
                            "name": "seller",
                            "type": "address"
                        },
                        {
                            "internalType": "address payable",
                            "name": "holder",
                            "type": "address"
                        },
                        {
                            "internalType": "uint256",
                            "name": "price",
                            "type": "uint256"
                        },
                        {
                            "internalType": "bool",
                            "name": "sold",
                            "type": "bool"
                        }
                    ],
                    "internalType": "struct MarketPlace.VaultItem[]",
                    "name": "",
                    "type": "tuple[]"
                }
            ],
            "stateMutability": "view",
            "type": "function"
        },
        {
            "inputs": [
                {
                    "internalType": "uint256",
                    "name": "",
                    "type": "uint256"
                }
            ],
            "name": "idToVaultItem",
            "outputs": [
                {
                    "internalType": "uint256",
                    "name": "itemId",
                    "type": "uint256"
                },
                {
                    "internalType": "address",
                    "name": "nftContract",
                    "type": "address"
                },
                {
                    "internalType": "uint256",
                    "name": "tokenId",
                    "type": "uint256"
                },
                {
                    "internalType": "address payable",
                    "name": "seller",
                    "type": "address"
                },
                {
                    "internalType": "address payable",
                    "name": "holder",
                    "type": "address"
                },
                {
                    "internalType": "uint256",
                    "name": "price",
                    "type": "uint256"
                },
                {
                    "internalType": "bool",
                    "name": "sold",
                    "type": "bool"
                }
            ],
            "stateMutability": "view",
            "type": "function"
        },
        {
            "inputs": [],
            "name": "owner",
            "outputs": [
                {
                    "internalType": "address",
                    "name": "",
                    "type": "address"
                }
            ],
            "stateMutability": "view",
            "type": "function"
        },
        {
            "inputs": [],
            "name": "pause",
            "outputs": [],
            "stateMutability": "nonpayable",
            "type": "function"
        },
        {
            "inputs": [],
            "name": "paused",
            "outputs": [
                {
                    "internalType": "bool",
                    "name": "",
                    "type": "bool"
                }
            ],
            "stateMutability": "view",
            "type": "function"
        },
        {
            "inputs": [],
            "name": "renounceOwnership",
            "outputs": [],
            "stateMutability": "nonpayable",
            "type": "function"
        },
        {
            "inputs": [
                {
                    "internalType": "address",
                    "name": "newOwner",
                    "type": "address"
                }
            ],
            "name": "transferOwnership",
            "outputs": [],
            "stateMutability": "nonpayable",
            "type": "function"
        },
        {
            "inputs": [],
            "name": "unpause",
            "outputs": [],
            "stateMutability": "nonpayable",
            "type": "function"
        },
        {
            "inputs": [],
            "name": "withdraw",
            "outputs": [],
            "stateMutability": "payable",
            "type": "function"
        }
    ],
    "bytecode": "0x608060405234801561001057600080fd5b5060405161163638038061163683398101604081905261002f91610158565b6000805460ff19169055610042336100ff565b60018055336100985760405162461bcd60e51b815260206004820152601f60248201527f416464726573732063616e6e6f7420626520746865203020616464726573730060448201526064015b60405180910390fd5b806100e55760405162461bcd60e51b815260206004820152601a60248201527f4c697374696e67204665652063616e6e6f74206265207a65726f000000000000604482015260640161008f565b600480546001600160a01b03191633179055600555610171565b600080546001600160a01b03838116610100818102610100600160a81b0319851617855560405193049190911692909183917f8be0079c531659141344cd1fd0a4f28419497f9722a3daafe3b4186f6b6457e091a35050565b60006020828403121561016a57600080fd5b5051919050565b6114b6806101806000396000f3fe6080604052600436106100f35760003560e01c80639b203b551161008a578063b8fe6abe11610059578063b8fe6abe146102c9578063bd94b005146102e7578063d438b98614610307578063f2fde38b1461031c57600080fd5b80639b203b551461026e5780639e4a1bf51461028e5780639fd01cd1146102a1578063a706ac21146102b657600080fd5b8063715018a6116100c6578063715018a61461016157806379df13cc146101765780638456cb59146102235780638da5cb5b1461023857600080fd5b80633ccfd60b146100f85780633f4ba83a146101025780635c975abb146101175780636f2e30c01461013f575b600080fd5b61010061033c565b005b34801561010e57600080fd5b5061010061036a565b34801561012357600080fd5b5060005460ff1660405190151581526020015b60405180910390f35b34801561014b57600080fd5b50610154610382565b6040516101369190611267565b34801561016d57600080fd5b50610100610555565b34801561018257600080fd5b506101df6101913660046112fb565b6006602081905260009182526040909120805460018201546002830154600384015460048501546005860154959096015493956001600160a01b039384169592949184169316919060ff1687565b604080519788526001600160a01b0396871660208901528701949094529184166060860152909216608084015260a0830191909152151560c082015260e001610136565b34801561022f57600080fd5b50610100610567565b34801561024457600080fd5b5060005461010090046001600160a01b03166040516001600160a01b039091168152602001610136565b34801561027a57600080fd5b50610100610289366004611314565b61057f565b61010061029c366004611359565b6105f8565b3480156102ad57600080fd5b50610154610826565b6101006102c4366004611385565b6109f0565b3480156102d557600080fd5b50600554604051908152602001610136565b3480156102f357600080fd5b506101006103023660046112fb565b610cbd565b34801561031357600080fd5b50610154610e01565b34801561032857600080fd5b506101006103373660046113ba565b610f84565b610344610ffa565b60405133904780156108fc02916000818181858888f1935050505061036857600080fd5b565b610372610ffa565b61037a61105a565b6103686110a3565b6060600061038f60025490565b905060008060005b838110156103f25733600660006103af8460016113ed565b81526020810191909152604001600020600401546001600160a01b031614156103e0576103dd6001846113ed565b92505b806103ea81611405565b915050610397565b5060008267ffffffffffffffff81111561040e5761040e611420565b60405190808252806020026020018201604052801561044757816020015b61043461122b565b81526020019060019003908161042c5790505b50905060005b8481101561054c5733600660006104658460016113ed565b81526020810191909152604001600020600401546001600160a01b0316141561053a5760006104958260016113ed565b600081815260066020818152604092839020835160e0810185528154815260018201546001600160a01b039081169382019390935260028201549481019490945260038101548216606085015260048101549091166080840152600581015460a08401529081015460ff16151560c083015285519293509185908790811061051f5761051f611436565b60209081029190910101526105356001866113ed565b945050505b8061054481611405565b91505061044d565b50949350505050565b61055d610ffa565b61036860006110f5565b61056f610ffa565b61057761114e565b610368611194565b610587610ffa565b61058f61114e565b6001600160801b0381166105ea5760405162461bcd60e51b815260206004820152601a60248201527f4c697374696e67204665652063616e6e6f74206265207a65726f00000000000060448201526064015b60405180910390fd5b6001600160801b0316600555565b6106006111d1565b61060861114e565b600081815260066020526040902060058101546002909101543482146106835760405162461bcd60e51b815260206004820152602a60248201527f4e6f7420656e6f7567682062616c616e636520746f20636f6d706c65746520746044820152693930b739b0b1ba34b7b760b11b60648201526084016105e1565b6000838152600660205260408082206003015490516001600160a01b03909116913480156108fc02929091818181858888f193505050501580156106cb573d6000803e3d6000fd5b506040516323b872dd60e01b8152306004820152336024820152604481018290526001600160a01b038516906323b872dd90606401600060405180830381600087803b15801561071a57600080fd5b505af115801561072e573d6000803e3d6000fd5b50505060008481526006602081905260409091206004810180546001600160a01b0319163317905501805460ff1916600117905550610771600380546001019055565b6004546005546040516001600160a01b039092169181156108fc0291906000818181858888f193505050501580156107ad573d6000803e3d6000fd5b50600083815260066020908152604091829020600381015460049091015483516001600160a01b0392831681529082169281019290925284928492918816917ff965b0e81fa3d810bd727c9ff7f5aa531e7f15a16c4921d4241fc1460eefe904910160405180910390a4505061082260018055565b5050565b6060600061083360025490565b905060008060005b838110156108965733600660006108538460016113ed565b81526020810191909152604001600020600301546001600160a01b03161415610884576108816001846113ed565b92505b8061088e81611405565b91505061083b565b5060008267ffffffffffffffff8111156108b2576108b2611420565b6040519080825280602002602001820160405280156108eb57816020015b6108d861122b565b8152602001906001900390816108d05790505b50905060005b8481101561054c5733600660006109098460016113ed565b81526020810191909152604001600020600301546001600160a01b031614156109de5760006109398260016113ed565b600081815260066020818152604092839020835160e0810185528154815260018201546001600160a01b039081169382019390935260028201549481019490945260038101548216606085015260048101549091166080840152600581015460a08401529081015460ff16151560c08301528551929350918590879081106109c3576109c3611436565b60209081029190910101526109d96001866113ed565b945050505b806109e881611405565b9150506108f1565b6109f86111d1565b610a0061114e565b60008111610a475760405162461bcd60e51b815260206004820152601460248201527350726963652063616e6e6f74206265207a65726f60601b60448201526064016105e1565b6005543414610a985760405162461bcd60e51b815260206004820152601b60248201527f50726963652063616e6e6f74206265206c697374696e6720666565000000000060448201526064016105e1565b6040516331a9108f60e11b8152600481018390526000906001600160a01b03851690636352211e90602401602060405180830381865afa158015610ae0573d6000803e3d6000fd5b505050506040513d601f19601f82011682018060405250810190610b04919061144c565b90506001600160a01b0381163314610b1b57600080fd5b610b29600280546001019055565b6000610b3460025490565b6040805160e0810182528281526001600160a01b0388811660208084018281528486018b8152336060870190815260006080880181815260a089018e815260c08a018381528c8452600697889052928b902099518a55945160018a0180546001600160a01b0319908116928b16929092179055935160028a0155915160038901805485169189169190911790559051600480890180549094169188169190911790925591516005870155905194909101805460ff19169415159490941790935592516323b872dd60e01b81529086169181019190915230602482015260448101879052919250906323b872dd90606401600060405180830381600087803b158015610c3e57600080fd5b505af1158015610c52573d6000803e3d6000fd5b505060408051338152600060208201819052818301889052606082015290518793506001600160a01b038916925084917f5f244be10a8d938e3d87696f8eb660aea498791b881de4ccb1838ba753270f18919081900360800190a45050610cb860018055565b505050565b610cc56111d1565b610ccd61114e565b6000818152600660205260409020600301546001600160a01b03163314610d265760405162461bcd60e51b815260206004820152600d60248201526c4e4654206e6f7420796f75727360981b60448201526064016105e1565b600081815260066020526040908190206001015490516323b872dd60e01b8152306004820152336024820152604481018390526001600160a01b03909116906323b872dd90606401600060405180830381600087803b158015610d8857600080fd5b505af1158015610d9c573d6000803e3d6000fd5b505050600082815260066020819052604082208281556001810180546001600160a01b031990811690915560028201849055600382018054821690556004820180549091169055600581019290925501805460ff1916905550610dfe60018055565b50565b60606000610e0e60025490565b90506000610e1b60035490565b600254610e289190611469565b90506000808267ffffffffffffffff811115610e4657610e46611420565b604051908082528060200260200182016040528015610e7f57816020015b610e6c61122b565b815260200190600190039081610e645790505b50905060005b8481101561054c576000600681610e9d8460016113ed565b81526020810191909152604001600020600401546001600160a01b03161415610f72576000610ecd8260016113ed565b600081815260066020818152604092839020835160e0810185528154815260018201546001600160a01b039081169382019390935260028201549481019490945260038101548216606085015260048101549091166080840152600581015460a08401529081015460ff16151560c0830152855192935091859087908110610f5757610f57611436565b6020908102919091010152610f6d6001866113ed565b945050505b80610f7c81611405565b915050610e85565b610f8c610ffa565b6001600160a01b038116610ff15760405162461bcd60e51b815260206004820152602660248201527f4f776e61626c653a206e6577206f776e657220697320746865207a65726f206160448201526564647265737360d01b60648201526084016105e1565b610dfe816110f5565b6000546001600160a01b036101009091041633146103685760405162461bcd60e51b815260206004820181905260248201527f4f776e61626c653a2063616c6c6572206973206e6f7420746865206f776e657260448201526064016105e1565b60005460ff166103685760405162461bcd60e51b815260206004820152601460248201527314185d5cd8589b194e881b9bdd081c185d5cd95960621b60448201526064016105e1565b6110ab61105a565b6000805460ff191690557f5db9ee0a495bf2e6ff9c91a7834c1ba4fdd244a5e8aa4e537bd38aeae4b073aa335b6040516001600160a01b03909116815260200160405180910390a1565b600080546001600160a01b03838116610100818102610100600160a81b0319851617855560405193049190911692909183917f8be0079c531659141344cd1fd0a4f28419497f9722a3daafe3b4186f6b6457e091a35050565b60005460ff16156103685760405162461bcd60e51b815260206004820152601060248201526f14185d5cd8589b194e881c185d5cd95960821b60448201526064016105e1565b61119c61114e565b6000805460ff191660011790557f62e78cea01bee320cd4e420270b5ea74000d11b0c9f74754ebdbfc544b05a2586110d83390565b600260015414156112245760405162461bcd60e51b815260206004820152601f60248201527f5265656e7472616e637947756172643a207265656e7472616e742063616c6c0060448201526064016105e1565b6002600155565b6040805160e081018252600080825260208201819052918101829052606081018290526080810182905260a0810182905260c081019190915290565b602080825282518282018190526000919060409081850190868401855b828110156112ee57815180518552868101516001600160a01b039081168887015286820151878701526060808301518216908701526080808301519091169086015260a0808201519086015260c09081015115159085015260e09093019290850190600101611284565b5091979650505050505050565b60006020828403121561130d57600080fd5b5035919050565b60006020828403121561132657600080fd5b81356001600160801b038116811461133d57600080fd5b9392505050565b6001600160a01b0381168114610dfe57600080fd5b6000806040838503121561136c57600080fd5b823561137781611344565b946020939093013593505050565b60008060006060848603121561139a57600080fd5b83356113a581611344565b95602085013595506040909401359392505050565b6000602082840312156113cc57600080fd5b813561133d81611344565b634e487b7160e01b600052601160045260246000fd5b60008219821115611400576114006113d7565b500190565b6000600019821415611419576114196113d7565b5060010190565b634e487b7160e01b600052604160045260246000fd5b634e487b7160e01b600052603260045260246000fd5b60006020828403121561145e57600080fd5b815161133d81611344565b60008282101561147b5761147b6113d7565b50039056fea2646970667358221220a6e0fcaa5c558130eb9082991153fccc8aff73dd16d59a44fb1fc9ab6d369f4a64736f6c634300080a0033",
    "linkReferences": {},
    "deployedLinkReferences": {}
}