{
    "_format": "hh-sol-artifact-1",
    "contractName": "Mint",
    "sourceName": "contracts/Mint.sol",
    "abi": [
        {
            "inputs": [
                {
                    "internalType": "address",
                    "name": "_marketContract",
                    "type": "address"
                },
                {
                    "internalType": "uint256",
                    "name": "_cost",
                    "type": "uint256"
                }
            ],
            "stateMutability": "nonpayable",
            "type": "constructor"
        },
        {
            "anonymous": false,
            "inputs": [
                {
                    "indexed": true,
                    "internalType": "address",
                    "name": "owner",
                    "type": "address"
                },
                {
                    "indexed": true,
                    "internalType": "address",
                    "name": "approved",
                    "type": "address"
                },
                {
                    "indexed": true,
                    "internalType": "uint256",
                    "name": "tokenId",
                    "type": "uint256"
                }
            ],
            "name": "Approval",
            "type": "event"
        },
        {
            "anonymous": false,
            "inputs": [
                {
                    "indexed": true,
                    "internalType": "address",
                    "name": "owner",
                    "type": "address"
                },
                {
                    "indexed": true,
                    "internalType": "address",
                    "name": "operator",
                    "type": "address"
                },
                {
                    "indexed": false,
                    "internalType": "bool",
                    "name": "approved",
                    "type": "bool"
                }
            ],
            "name": "ApprovalForAll",
            "type": "event"
        },
        {
            "anonymous": false,
            "inputs": [
                {
                    "indexed": true,
                    "internalType": "address",
                    "name": "previousOwner",
                    "type": "address"
                },
                {
                    "indexed": true,
                    "internalType": "address",
                    "name": "newOwner",
                    "type": "address"
                }
            ],
            "name": "OwnershipTransferred",
            "type": "event"
        },
        {
            "anonymous": false,
            "inputs": [
                {
                    "indexed": false,
                    "internalType": "address",
                    "name": "account",
                    "type": "address"
                }
            ],
            "name": "Paused",
            "type": "event"
        },
        {
            "anonymous": false,
            "inputs": [
                {
                    "indexed": true,
                    "internalType": "address",
                    "name": "from",
                    "type": "address"
                },
                {
                    "indexed": true,
                    "internalType": "address",
                    "name": "to",
                    "type": "address"
                },
                {
                    "indexed": true,
                    "internalType": "uint256",
                    "name": "tokenId",
                    "type": "uint256"
                }
            ],
            "name": "Transfer",
            "type": "event"
        },
        {
            "anonymous": false,
            "inputs": [
                {
                    "indexed": false,
                    "internalType": "address",
                    "name": "account",
                    "type": "address"
                }
            ],
            "name": "Unpaused",
            "type": "event"
        },
        {
            "inputs": [],
            "name": "_tokenIds",
            "outputs": [
                {
                    "internalType": "uint256",
                    "name": "_value",
                    "type": "uint256"
                }
            ],
            "stateMutability": "view",
            "type": "function"
        },
        {
            "inputs": [
                {
                    "internalType": "address",
                    "name": "to",
                    "type": "address"
                },
                {
                    "internalType": "uint256",
                    "name": "tokenId",
                    "type": "uint256"
                }
            ],
            "name": "approve",
            "outputs": [],
            "stateMutability": "nonpayable",
            "type": "function"
        },
        {
            "inputs": [
                {
                    "internalType": "address",
                    "name": "owner",
                    "type": "address"
                }
            ],
            "name": "balanceOf",
            "outputs": [
                {
                    "internalType": "uint256",
                    "name": "",
                    "type": "uint256"
                }
            ],
            "stateMutability": "view",
            "type": "function"
        },
        {
            "inputs": [
                {
                    "internalType": "string",
                    "name": "tokenURI",
                    "type": "string"
                }
            ],
            "name": "createNFT",
            "outputs": [
                {
                    "internalType": "uint256",
                    "name": "",
                    "type": "uint256"
                }
            ],
            "stateMutability": "nonpayable",
            "type": "function"
        },
        {
            "inputs": [
                {
                    "internalType": "uint256",
                    "name": "tokenId",
                    "type": "uint256"
                }
            ],
            "name": "getApproved",
            "outputs": [
                {
                    "internalType": "address",
                    "name": "",
                    "type": "address"
                }
            ],
            "stateMutability": "view",
            "type": "function"
        },
        {
            "inputs": [
                {
                    "internalType": "address",
                    "name": "owner",
                    "type": "address"
                },
                {
                    "internalType": "address",
                    "name": "operator",
                    "type": "address"
                }
            ],
            "name": "isApprovedForAll",
            "outputs": [
                {
                    "internalType": "bool",
                    "name": "",
                    "type": "bool"
                }
            ],
            "stateMutability": "view",
            "type": "function"
        },
        {
            "inputs": [
                {
                    "internalType": "string",
                    "name": "tokenURI",
                    "type": "string"
                }
            ],
            "name": "mintNFT",
            "outputs": [
                {
                    "internalType": "uint256",
                    "name": "",
                    "type": "uint256"
                }
            ],
            "stateMutability": "payable",
            "type": "function"
        },
        {
            "inputs": [],
            "name": "name",
            "outputs": [
                {
                    "internalType": "string",
                    "name": "",
                    "type": "string"
                }
            ],
            "stateMutability": "view",
            "type": "function"
        },
        {
            "inputs": [],
            "name": "owner",
            "outputs": [
                {
                    "internalType": "address",
                    "name": "",
                    "type": "address"
                }
            ],
            "stateMutability": "view",
            "type": "function"
        },
        {
            "inputs": [
                {
                    "internalType": "uint256",
                    "name": "tokenId",
                    "type": "uint256"
                }
            ],
            "name": "ownerOf",
            "outputs": [
                {
                    "internalType": "address",
                    "name": "",
                    "type": "address"
                }
            ],
            "stateMutability": "view",
            "type": "function"
        },
        {
            "inputs": [],
            "name": "pause",
            "outputs": [],
            "stateMutability": "nonpayable",
            "type": "function"
        },
        {
            "inputs": [],
            "name": "paused",
            "outputs": [
                {
                    "internalType": "bool",
                    "name": "",
                    "type": "bool"
                }
            ],
            "stateMutability": "view",
            "type": "function"
        },
        {
            "inputs": [],
            "name": "renounceOwnership",
            "outputs": [],
            "stateMutability": "nonpayable",
            "type": "function"
        },
        {
            "inputs": [
                {
                    "internalType": "address",
                    "name": "from",
                    "type": "address"
                },
                {
                    "internalType": "address",
                    "name": "to",
                    "type": "address"
                },
                {
                    "internalType": "uint256",
                    "name": "tokenId",
                    "type": "uint256"
                }
            ],
            "name": "safeTransferFrom",
            "outputs": [],
            "stateMutability": "nonpayable",
            "type": "function"
        },
        {
            "inputs": [
                {
                    "internalType": "address",
                    "name": "from",
                    "type": "address"
                },
                {
                    "internalType": "address",
                    "name": "to",
                    "type": "address"
                },
                {
                    "internalType": "uint256",
                    "name": "tokenId",
                    "type": "uint256"
                },
                {
                    "internalType": "bytes",
                    "name": "data",
                    "type": "bytes"
                }
            ],
            "name": "safeTransferFrom",
            "outputs": [],
            "stateMutability": "nonpayable",
            "type": "function"
        },
        {
            "inputs": [
                {
                    "internalType": "address",
                    "name": "operator",
                    "type": "address"
                },
                {
                    "internalType": "bool",
                    "name": "approved",
                    "type": "bool"
                }
            ],
            "name": "setApprovalForAll",
            "outputs": [],
            "stateMutability": "nonpayable",
            "type": "function"
        },
        {
            "inputs": [
                {
                    "internalType": "uint256",
                    "name": "_cost",
                    "type": "uint256"
                }
            ],
            "name": "setCost",
            "outputs": [],
            "stateMutability": "nonpayable",
            "type": "function"
        },
        {
            "inputs": [
                {
                    "internalType": "bytes4",
                    "name": "interfaceId",
                    "type": "bytes4"
                }
            ],
            "name": "supportsInterface",
            "outputs": [
                {
                    "internalType": "bool",
                    "name": "",
                    "type": "bool"
                }
            ],
            "stateMutability": "view",
            "type": "function"
        },
        {
            "inputs": [],
            "name": "symbol",
            "outputs": [
                {
                    "internalType": "string",
                    "name": "",
                    "type": "string"
                }
            ],
            "stateMutability": "view",
            "type": "function"
        },
        {
            "inputs": [
                {
                    "internalType": "uint256",
                    "name": "tokenId",
                    "type": "uint256"
                }
            ],
            "name": "tokenURI",
            "outputs": [
                {
                    "internalType": "string",
                    "name": "",
                    "type": "string"
                }
            ],
            "stateMutability": "view",
            "type": "function"
        },
        {
            "inputs": [
                {
                    "internalType": "address",
                    "name": "from",
                    "type": "address"
                },
                {
                    "internalType": "address",
                    "name": "to",
                    "type": "address"
                },
                {
                    "internalType": "uint256",
                    "name": "tokenId",
                    "type": "uint256"
                }
            ],
            "name": "transferFrom",
            "outputs": [],
            "stateMutability": "nonpayable",
            "type": "function"
        },
        {
            "inputs": [
                {
                    "internalType": "address",
                    "name": "newOwner",
                    "type": "address"
                }
            ],
            "name": "transferOwnership",
            "outputs": [],
            "stateMutability": "nonpayable",
            "type": "function"
        },
        {
            "inputs": [],
            "name": "unpause",
            "outputs": [],
            "stateMutability": "nonpayable",
            "type": "function"
        },
        {
            "inputs": [],
            "name": "withdraw",
            "outputs": [],
            "stateMutability": "payable",
            "type": "function"
        }
    ],
    "bytecode": "0x60806040523480156200001157600080fd5b5060405162001d2038038062001d208339810160408190526200003491620001e3565b60405180604001604052806004815260200163135a5b9d60e21b8152506040518060400160405280600381526020016222a6a760e91b8152506200008762000081620000e960201b60201c565b620000ed565b81516200009c9060019060208501906200013d565b508051620000b29060029060208401906200013d565b50506008805460ff1916905550600a80546001600160a01b0319166001600160a01b039390931692909217909155600b556200025c565b3390565b600080546001600160a01b038381166001600160a01b0319831681178455604051919092169283917f8be0079c531659141344cd1fd0a4f28419497f9722a3daafe3b4186f6b6457e09190a35050565b8280546200014b906200021f565b90600052602060002090601f0160209004810192826200016f5760008555620001ba565b82601f106200018a57805160ff1916838001178555620001ba565b82800160010185558215620001ba579182015b82811115620001ba5782518255916020019190600101906200019d565b50620001c8929150620001cc565b5090565b5b80821115620001c85760008155600101620001cd565b60008060408385031215620001f757600080fd5b82516001600160a01b03811681146200020f57600080fd5b6020939093015192949293505050565b600181811c908216806200023457607f821691505b602082108114156200025657634e487b7160e01b600052602260045260246000fd5b50919050565b611ab4806200026c6000396000f3fe60806040526004361061014b5760003560e01c8063715018a6116100b6578063b88d4fde1161006f578063b88d4fde14610378578063c87b56dd14610398578063da2ed03e146103b8578063e985e9c5146103d8578063f2fde38b14610421578063fb37e8831461044157600080fd5b8063715018a6146102e45780638456cb59146102f95780638da5cb5b1461030e57806395d89b411461032c578063a22cb46514610341578063aa46a4001461036157600080fd5b80633f4ba83a116101085780633f4ba83a1461022957806342842e0e1461023e57806344a0d68a1461025e5780635c975abb1461027e5780636352211e1461029657806370a08231146102b657600080fd5b806301ffc9a71461015057806306fdde0314610185578063081812fc146101a7578063095ea7b3146101df57806323b872dd146102015780633ccfd60b14610221575b600080fd5b34801561015c57600080fd5b5061017061016b3660046115dd565b610454565b60405190151581526020015b60405180910390f35b34801561019157600080fd5b5061019a6104a6565b60405161017c9190611652565b3480156101b357600080fd5b506101c76101c2366004611665565b610538565b6040516001600160a01b03909116815260200161017c565b3480156101eb57600080fd5b506101ff6101fa366004611695565b61055f565b005b34801561020d57600080fd5b506101ff61021c3660046116bf565b61067a565b6101ff6106ab565b34801561023557600080fd5b506101ff6106d9565b34801561024a57600080fd5b506101ff6102593660046116bf565b6106e9565b34801561026a57600080fd5b506101ff610279366004611665565b610704565b34801561028a57600080fd5b5060085460ff16610170565b3480156102a257600080fd5b506101c76102b1366004611665565b610711565b3480156102c257600080fd5b506102d66102d13660046116fb565b610771565b60405190815260200161017c565b3480156102f057600080fd5b506101ff6107f7565b34801561030557600080fd5b506101ff610809565b34801561031a57600080fd5b506000546001600160a01b03166101c7565b34801561033857600080fd5b5061019a610819565b34801561034d57600080fd5b506101ff61035c366004611716565b610828565b34801561036d57600080fd5b506009546102d69081565b34801561038457600080fd5b506101ff6103933660046117de565b610837565b3480156103a457600080fd5b5061019a6103b3366004611665565b61086f565b3480156103c457600080fd5b506102d66103d336600461185a565b610980565b3480156103e457600080fd5b506101706103f33660046118a3565b6001600160a01b03918216600090815260066020908152604080832093909416825291909152205460ff1690565b34801561042d57600080fd5b506101ff61043c3660046116fb565b6109d5565b6102d661044f36600461185a565b610a4e565b60006001600160e01b031982166380ac58cd60e01b148061048557506001600160e01b03198216635b5e139f60e01b145b806104a057506301ffc9a760e01b6001600160e01b03198316145b92915050565b6060600180546104b5906118d6565b80601f01602080910402602001604051908101604052809291908181526020018280546104e1906118d6565b801561052e5780601f106105035761010080835404028352916020019161052e565b820191906000526020600020905b81548152906001019060200180831161051157829003601f168201915b5050505050905090565b600061054382610aa9565b506000908152600560205260409020546001600160a01b031690565b600061056a82610711565b9050806001600160a01b0316836001600160a01b031614156105dd5760405162461bcd60e51b815260206004820152602160248201527f4552433732313a20617070726f76616c20746f2063757272656e74206f776e656044820152603960f91b60648201526084015b60405180910390fd5b336001600160a01b03821614806105f957506105f981336103f3565b61066b5760405162461bcd60e51b815260206004820152603d60248201527f4552433732313a20617070726f76652063616c6c6572206973206e6f7420746f60448201527f6b656e206f776e6572206f7220617070726f76656420666f7220616c6c00000060648201526084016105d4565b6106758383610b08565b505050565b6106843382610b76565b6106a05760405162461bcd60e51b81526004016105d490611911565b610675838383610bf4565b6106b3610d58565b60405133904780156108fc02916000818181858888f193505050506106d757600080fd5b565b6106e1610d58565b6106d7610db2565b61067583838360405180602001604052806000815250610837565b61070c610d58565b600b55565b6000818152600360205260408120546001600160a01b0316806104a05760405162461bcd60e51b8152602060048201526018602482015277115490cdcc8c4e881a5b9d985b1a59081d1bdad95b88125160421b60448201526064016105d4565b60006001600160a01b0382166107db5760405162461bcd60e51b815260206004820152602960248201527f4552433732313a2061646472657373207a65726f206973206e6f7420612076616044820152683634b21037bbb732b960b91b60648201526084016105d4565b506001600160a01b031660009081526004602052604090205490565b6107ff610d58565b6106d76000610e04565b610811610d58565b6106d7610e54565b6060600280546104b5906118d6565b610833338383610e91565b5050565b6108413383610b76565b61085d5760405162461bcd60e51b81526004016105d490611911565b61086984848484610f60565b50505050565b606061087a82610aa9565b60008281526007602052604081208054610893906118d6565b80601f01602080910402602001604051908101604052809291908181526020018280546108bf906118d6565b801561090c5780601f106108e15761010080835404028352916020019161090c565b820191906000526020600020905b8154815290600101906020018083116108ef57829003601f168201915b50505050509050600061092a60408051602081019091526000815290565b905080516000141561093d575092915050565b81511561096f57808260405160200161095792919061195e565b60405160208183030381529060405292505050919050565b61097884610f93565b949350505050565b600061098a611007565b610998600980546001019055565b60006109a360095490565b90506109af338261104d565b6109b981846111d8565b600a546104a0906001600160a01b03166001610828565b919050565b6109dd610d58565b6001600160a01b038116610a425760405162461bcd60e51b815260206004820152602660248201527f4f776e61626c653a206e6577206f776e657220697320746865207a65726f206160448201526564647265737360d01b60648201526084016105d4565b610a4b81610e04565b50565b6000610a58611007565b600b54341461098a5760405162461bcd60e51b815260206004820152601960248201527f4e65656420746f2073656e6420302e303735206574686572210000000000000060448201526064016105d4565b6000818152600360205260409020546001600160a01b0316610a4b5760405162461bcd60e51b8152602060048201526018602482015277115490cdcc8c4e881a5b9d985b1a59081d1bdad95b88125160421b60448201526064016105d4565b600081815260056020526040902080546001600160a01b0319166001600160a01b0384169081179091558190610b3d82610711565b6001600160a01b03167f8c5be1e5ebec7d5bd14f71427d1e84f3dd0314c0f7b2291e5b200ac8c7c3b92560405160405180910390a45050565b600080610b8283610711565b9050806001600160a01b0316846001600160a01b03161480610bc957506001600160a01b0380821660009081526006602090815260408083209388168352929052205460ff165b806109785750836001600160a01b0316610be284610538565b6001600160a01b031614949350505050565b826001600160a01b0316610c0782610711565b6001600160a01b031614610c2d5760405162461bcd60e51b81526004016105d49061198d565b6001600160a01b038216610c8f5760405162461bcd60e51b8152602060048201526024808201527f4552433732313a207472616e7366657220746f20746865207a65726f206164646044820152637265737360e01b60648201526084016105d4565b826001600160a01b0316610ca282610711565b6001600160a01b031614610cc85760405162461bcd60e51b81526004016105d49061198d565b600081815260056020908152604080832080546001600160a01b03199081169091556001600160a01b0387811680865260048552838620805460001901905590871680865283862080546001019055868652600390945282852080549092168417909155905184937fddf252ad1be2c89b69c2b068fc378daa952ba7f163c4a11628f55a4df523b3ef91a4505050565b6000546001600160a01b031633146106d75760405162461bcd60e51b815260206004820181905260248201527f4f776e61626c653a2063616c6c6572206973206e6f7420746865206f776e657260448201526064016105d4565b610dba611272565b6008805460ff191690557f5db9ee0a495bf2e6ff9c91a7834c1ba4fdd244a5e8aa4e537bd38aeae4b073aa335b6040516001600160a01b03909116815260200160405180910390a1565b600080546001600160a01b038381166001600160a01b0319831681178455604051919092169283917f8be0079c531659141344cd1fd0a4f28419497f9722a3daafe3b4186f6b6457e09190a35050565b610e5c611007565b6008805460ff191660011790557f62e78cea01bee320cd4e420270b5ea74000d11b0c9f74754ebdbfc544b05a258610de73390565b816001600160a01b0316836001600160a01b03161415610ef35760405162461bcd60e51b815260206004820152601960248201527f4552433732313a20617070726f766520746f2063616c6c65720000000000000060448201526064016105d4565b6001600160a01b03838116600081815260066020908152604080832094871680845294825291829020805460ff191686151590811790915591519182527f17307eab39ab6107e8899845ad3d59bd9653f200f220920489ca2b5937696c31910160405180910390a3505050565b610f6b848484610bf4565b610f77848484846112bb565b6108695760405162461bcd60e51b81526004016105d4906119d2565b6060610f9e82610aa9565b6000610fb560408051602081019091526000815290565b90506000815111610fd55760405180602001604052806000815250611000565b80610fdf846113b9565b604051602001610ff092919061195e565b6040516020818303038152906040525b9392505050565b60085460ff16156106d75760405162461bcd60e51b815260206004820152601060248201526f14185d5cd8589b194e881c185d5cd95960821b60448201526064016105d4565b6001600160a01b0382166110a35760405162461bcd60e51b815260206004820181905260248201527f4552433732313a206d696e7420746f20746865207a65726f206164647265737360448201526064016105d4565b6000818152600360205260409020546001600160a01b0316156111085760405162461bcd60e51b815260206004820152601c60248201527f4552433732313a20746f6b656e20616c7265616479206d696e7465640000000060448201526064016105d4565b6000818152600360205260409020546001600160a01b03161561116d5760405162461bcd60e51b815260206004820152601c60248201527f4552433732313a20746f6b656e20616c7265616479206d696e7465640000000060448201526064016105d4565b6001600160a01b038216600081815260046020908152604080832080546001019055848352600390915280822080546001600160a01b0319168417905551839291907fddf252ad1be2c89b69c2b068fc378daa952ba7f163c4a11628f55a4df523b3ef908290a45050565b6000828152600360205260409020546001600160a01b03166112535760405162461bcd60e51b815260206004820152602e60248201527f45524337323155524953746f726167653a2055524920736574206f66206e6f6e60448201526d32bc34b9ba32b73a103a37b5b2b760911b60648201526084016105d4565b600082815260076020908152604090912082516106759284019061152e565b60085460ff166106d75760405162461bcd60e51b815260206004820152601460248201527314185d5cd8589b194e881b9bdd081c185d5cd95960621b60448201526064016105d4565b60006001600160a01b0384163b156113ae57604051630a85bd0160e11b81526001600160a01b0385169063150b7a02906112ff903390899088908890600401611a24565b6020604051808303816000875af192505050801561133a575060408051601f3d908101601f1916820190925261133791810190611a61565b60015b611394573d808015611368576040519150601f19603f3d011682016040523d82523d6000602084013e61136d565b606091505b50805161138c5760405162461bcd60e51b81526004016105d4906119d2565b805181602001fd5b6001600160e01b031916630a85bd0160e11b149050610978565b506001949350505050565b606060006113c683611456565b600101905060008167ffffffffffffffff8111156113e6576113e6611752565b6040519080825280601f01601f191660200182016040528015611410576020820181803683370190505b5090508181016020015b600019016f181899199a1a9b1b9c1cb0b131b232b360811b600a86061a8153600a85049450846114495761144e565b61141a565b509392505050565b60008072184f03e93ff9f4daa797ed6e38ed64bf6a1f0160401b83106114955772184f03e93ff9f4daa797ed6e38ed64bf6a1f0160401b830492506040015b6d04ee2d6d415b85acef810000000083106114c1576d04ee2d6d415b85acef8100000000830492506020015b662386f26fc1000083106114df57662386f26fc10000830492506010015b6305f5e10083106114f7576305f5e100830492506008015b612710831061150b57612710830492506004015b6064831061151d576064830492506002015b600a83106104a05760010192915050565b82805461153a906118d6565b90600052602060002090601f01602090048101928261155c57600085556115a2565b82601f1061157557805160ff19168380011785556115a2565b828001600101855582156115a2579182015b828111156115a2578251825591602001919060010190611587565b506115ae9291506115b2565b5090565b5b808211156115ae57600081556001016115b3565b6001600160e01b031981168114610a4b57600080fd5b6000602082840312156115ef57600080fd5b8135611000816115c7565b60005b838110156116155781810151838201526020016115fd565b838111156108695750506000910152565b6000815180845261163e8160208601602086016115fa565b601f01601f19169290920160200192915050565b6020815260006110006020830184611626565b60006020828403121561167757600080fd5b5035919050565b80356001600160a01b03811681146109d057600080fd5b600080604083850312156116a857600080fd5b6116b18361167e565b946020939093013593505050565b6000806000606084860312156116d457600080fd5b6116dd8461167e565b92506116eb6020850161167e565b9150604084013590509250925092565b60006020828403121561170d57600080fd5b6110008261167e565b6000806040838503121561172957600080fd5b6117328361167e565b91506020830135801515811461174757600080fd5b809150509250929050565b634e487b7160e01b600052604160045260246000fd5b600067ffffffffffffffff8084111561178357611783611752565b604051601f8501601f19908116603f011681019082821181831017156117ab576117ab611752565b816040528093508581528686860111156117c457600080fd5b858560208301376000602087830101525050509392505050565b600080600080608085870312156117f457600080fd5b6117fd8561167e565b935061180b6020860161167e565b925060408501359150606085013567ffffffffffffffff81111561182e57600080fd5b8501601f8101871361183f57600080fd5b61184e87823560208401611768565b91505092959194509250565b60006020828403121561186c57600080fd5b813567ffffffffffffffff81111561188357600080fd5b8201601f8101841361189457600080fd5b61097884823560208401611768565b600080604083850312156118b657600080fd5b6118bf8361167e565b91506118cd6020840161167e565b90509250929050565b600181811c908216806118ea57607f821691505b6020821081141561190b57634e487b7160e01b600052602260045260246000fd5b50919050565b6020808252602d908201527f4552433732313a2063616c6c6572206973206e6f7420746f6b656e206f776e6560408201526c1c881bdc88185c1c1c9bdd9959609a1b606082015260800190565b600083516119708184602088016115fa565b8351908301906119848183602088016115fa565b01949350505050565b60208082526025908201527f4552433732313a207472616e736665722066726f6d20696e636f72726563742060408201526437bbb732b960d91b606082015260800190565b60208082526032908201527f4552433732313a207472616e7366657220746f206e6f6e20455243373231526560408201527131b2b4bb32b91034b6b83632b6b2b73a32b960711b606082015260800190565b6001600160a01b0385811682528416602082015260408101839052608060608201819052600090611a5790830184611626565b9695505050505050565b600060208284031215611a7357600080fd5b8151611000816115c756fea2646970667358221220e974c410077098a377f3117a69bd194ca0df3e14dfd276a29af44de51d176c6064736f6c634300080a0033",
    "linkReferences": {},
    "deployedLinkReferences": {}
}